:020000041000EA
:1000000000B5324B212058609868022188439860DF
:10001000D860186158612E4B002199600221596106
:100020000121F02299502B49196001219960352056
:1000300000F044F80222904214D00621196600F024
:1000400034F8196E01211966002018661A6600F04E
:100050002CF8196E196E196E052000F02FF8012189
:100060000842F9D1002199601B49196000215960AB
:100070001A491B48016001219960EB211966A021F2
:10008000196600F012F800219960164914480160C1
:100090000121996001BC002800D000471248134993
:1000A000086003C880F30888084703B5996A0420EC
:1000B0000142FBD001200142F8D103BD02B5186610
:1000C0001866FFF7F2FF186E186E02BD00000240BE
:1000D000000000180000070000035F00212200005C
:1000E000F4000018222000A00001001008ED00E03C
:1000F00000000000000000000000000074B24E7A12
:1001000000200420F7010010CB010010CD010010E9
:10011000C9010010C9010010C9010010C901001077
:10012000C9010010C9010010C9010010CF01001061
:10013000C9010010C9010010D1010010D301001045
:10014000C1010010C1010010C1010010C101001067
:10015000C1010010C1010010C1010010C101001057
:10016000C1010010C1010010C1010010C101001047
:10017000C1010010C1010010C1010010C101001037
:10018000C1010010C1010010C1010010C101001027
:10019000C1010010C1010010C1010010C101001017
:1001A000C1010010C1010010C1010010C101001007
:1001B000C1010010C1010010C1010010C1010010F7
:1001C000EFF30580103800BE00BE00BE00BE00BECA
:1001D00000BE00BEF2EB88719C6C0110B86C01107F
:1001E0003802001090A31AE71E481F49086006C88D
:1001F00081F3088810471D480068002801D019487D
:10020000F3E70DA40ECC002902D000F012F8F9E7B4
:100210001749184A002000E001C19142FCD116495B
:100220008847164988471649884700BEFDE701C937
:1002300001C29A42FBD37047B86C0110C000002085
:10024000BC180020B4840110000004200000042029
:10025000B4840110001004200010042000000000ED
:10026000704700000000000008ED00E0000000D032
:10027000BC180020F4690020154700108904001004
:100280000D470010F8B5C0460448054B10B5834231
:1002900003D0044B002B00D0984710BDBC180020A1
:1002A000BC1800200000000006480749091A8B10FE
:1002B000C90FC91810B5491003D0044B002B00D04A
:1002C000984710BDBC180020BC180020000000009A
:1002D00010B5074C2378002B09D1FFF7D5FF054B4C
:1002E000002B02D0044800E000BF0123237010BDA2
:1002F00018620020000000004C550110054B10B59D
:10030000002B03D00449054800E000BFFFF7CCFFF5
:1003100010BDC046000000001C6200204C550110BA
:1003200030B587B004AD290002A800F06BFA6B4627
:100330000C20185E02F0F2FC6B46041C0A20185ECA
:1003400002F0ECFC211C02F04DFD041C0023E85ED1
:1003500002F0E4FC1A4902F08EFC1A49051C201C2C
:1003600002F09DFC02F034FD174B184A02F051F8E0
:1003700002F024F9291C164A00F08EFA154B164C8F
:1003800018602168EFF3108072B60A68002AFCD06A
:10039000BFF35F8F1A680E4B6060104900931048DE
:1003A0002B1C00F01DFB0CCCBFF35F8F00211160F4
:1003B00083F31088011C00F053F9012007B030BD11
:1003C0000000034300003443FB210940182D44542E
:1003D0000AD7233C106300202867002098010020E2
:1003E00030670020F0B5C646436900B5072B3FD9FA
:1003F000224E3268EFF3108772B61368002BFCD0E0
:10040000BFF35F8FFC2105691D4C2B6889052360B4
:100410006B6877606360AB68A360EB68E3602B692F
:1004200023616B69181C984602F06EFCFC21431E88
:100430009841AB692077A361EB6940466361890508
:1004400002F062FC002804D100220E4B9A60DA60B0
:100450001A613368BFF35F8F00221A6087F3108838
:10046000D02380221B0659689204114203D15A619D
:1004700080BCB846F0BD9A61FAE7C0462867002004
:100480009801002030670020F0B5CE46474680B581
:100490003C4BC5B001933C4B00213C4A00930120EA
:1004A0003B4B05F0EBFC192000F0FAFBD023802237
:1004B0001B0692045A6200F071F900F08DF835487D
:1004C00000F042FD00F05AFF0CAB02930023984667
:1004D0000193314B314A009301235B4201F066F8EE
:1004E00007A805F01DFC0022002107AB13A805F0AA
:1004F00011FB2B4A2B4913AB05A805F055FB06F061
:10050000A7FA294F0200294B05A9380005F086FB00
:1005100006F09EFA264B0200994605A9254B48464F
:1005200005F0B0FB0323244E244DB3617361053302
:10053000AB6143466B61224B224C2B61012207AB1E
:1005400013A920A8346105F081F843462A000093DE
:1005500049461D4B20A805F0D9F81C4B1C4D984668
:1005600043461B6800222360AB68310063602B693F
:100570003800A36004F0B0FC0023164A20A805F060
:1005800045F9EDE79D0B0010750B0010190B0010DD
:10059000650B00102867002021030010F0D8FFFF32
:1005A000EC6A011050550110CC6700205C55011019
:1005B0000C69002068550110706700208C670020CE
:1005C000B0620020A4620020E50300101063002048
:1005D0003067002080969800F0B5C64600B584B01C
:1005E0006C462200194BD02723CB23C21B6801265F
:1005F000136004AB98463F0620CC280000F050FB67
:100600003300AB407B624445F6D18023DB02BB6103
:1006100080239B03BB610421112000F00DFB04210A
:10062000142000F009FBC822094B5A60DA6232003C
:100630001B689A43074B1A60074B1B689E43074B86
:100640001E6004B080BCB846F0BDC04674550110B1
:100650000000054000100540280005402810054016
:1006600070B544006408061C0D1C201C3F4902F0B4
:1006700045FB002800D06EE00021301C02F044FB56
:10068000D02380221B065202002853D19A61384998
:10069000201C02F004FB3749041C02F02FFB002849
:1006A0004FD1211C344802F0E6FA02F08BFB802384
:1006B00001385B02984257D2420812042F4B18614E
:1006C0002F4B1B6853401B0C2E4A1B0413606C00FD
:1006D00064082649201C02F011FB002834D10021B7
:1006E000281C02F011FBD02380221B0612030028D5
:1006F00025D15A611E49201C02F0D1FA1D49041C63
:1007000002F0FCFA002817D1211C1B4802F0B3FAB2
:1007100002F058FB802301385B02984222D2430842
:10072000164A9063184A126853401B04174A1B0C60
:10073000136070BD5A61AAE7154B1648F0E79A613D
:10074000D8E7154A1348B9E70F4B104A1B681B043A
:100750001B0C1360EDE70A4B0A4A1B681B0C1B04B9
:100760001360B4E70B48DAE70A48A5E76F12833A4B
:100770000000FA46000048428096184B00000540F1
:100780000C0005400C1005403400054034100540B5
:10079000FF7F0000FFFF00000000FF7F30B5164C18
:1007A00085B02000154904F07BFA0321042000F0F5
:1007B00043FA0321052000F03FFA00220121042022
:1007C00000F054FA00220121052000F04FFA002524
:1007D0006B2302AA1380682120000095693B04F076
:1007E00089FA074B03AA1380682102232000009591
:1007F00004F080FA05B030BD00020020801A060027
:100800001A050000F0B5CE46474680B587B06A4667
:100810003B23D3730F221F4F3A3B06000D0000937A
:100820006A4468213800994604F064FA002304AC55
:1008300098462200009368213800063304F064FAD9
:1008400023886A465BBA3380638868215BBA738009
:10085000A38838005BBAB3804323D3734B460F227F
:1008600000936A4404F046FA43462200009368214C
:100870003800063304F048FA23885BBA2B8063887B
:100880005BBA6B80A3885BBAAB8007B0C0BCB946CB
:10089000B046F0BD00020020F0B5DE4657464E4699
:1008A0004546E0B5484B85B01B68161C8346081CBE
:1008B000191C029302F0D9F9311C02F0F0F9434AF5
:1008C000116802F0D5F9424C8246E268311C101CD6
:1008D000039202F0E4F9A26867689146391C8046E9
:1008E00002F0C3F9494602F0C0F93A4902F0C0F9F2
:1008F000311C02F0D4F9216802F0BAF94146051C16
:10090000381C02F0B2F94146071C484602F0ADF926
:1009100031490190281C02F0ABF98046011C281CCB
:1009200002F0A9F941468146019802F0A4F9514626
:100930008046584602F099F98346011C484602F069
:10094000AEF9514602F094F9204A824610605946A9
:10095000404602F0A4F9029902F08AF91A4B49467E
:100960001860281C02F09BF9011C281C02F07DF97C
:1009700049462060381C02F092F9011C381C02F034
:1009800074F941466060281C02F089F9011C019845
:1009900002F06BF91149A060301C02F080F9039954
:1009A00002F066F94146051C381C02F078F9011C7A
:1009B000281C02F05AF9E060504605B0F0BCBB4676
:1009C000B246A946A046F0BDA06200208062002089
:1009D000706200206F12833A8FC2F53CA69B443BA5
:1009E000F8B54746CE460400500080B50D004008DB
:1009F0003649161C1F1C02F087F9002855D12B7FA1
:100A0000002B52D02969301C02F02FF902F0E0F9D6
:100A10002F4A304B01F01BFD01F0D0FD80462060D5
:100A2000381C02F0D5F92A4A2A4B01F010FD01F0DA
:100A3000C5FDE3680899061C6060181C994602F021
:100A40002EF9A16802F014F96969A06002F00DF9AD
:100A5000E96802F024F9A968071C484602F01FF96A
:100A6000011C381C02F004F92968071C404602F0FA
:100A700016F969688046301C02F011F9011C4046E5
:100A800002F0F6F8011C381C02F0F2F8A96902F035
:100A900006F9FE218905051C02F036F900280DD063
:100AA000FE25AD052561E56003E00025A560E56054
:100AB0002561281CC0BCB946B046F8BD0649281CB3
:100AC00002F01CF90028EDD0034DEBE700003442A2
:100AD000399D52A246DF913F000080BF70B50C00E7
:100AE00000F006FE00230B4A06000D0001F082FA1A
:100AF000002320606160074A3000290001F07AFA83
:100B0000100053019B1A9A001218D2000020A26014
:100B100070BDC04640420F00E12110B50F4C4902A4
:100B2000200000F019FE0221002000F085F80221CB
:100B3000012000F081F8C022236B12021340084A02
:100B40002000136008210023012200F0A5FE2000F0
:100B5000012100F0DDFE012010BDC0460040034031
:100B60003050034010B5024800F084FE012010BD53
:100B700000400340100030B5002A0BD08D18202211
:100B80000C0005498B691A42FCD1237801340B60B3
:100B9000A542F7D130BDC04600400340F0B5DE4667
:100BA000464657469346C0B582B01C00884600F0C2
:100BB0009FFD5B4600900191002B37D06201121B14
:100BC00093001B19DB001C00DD17002310269A463A
:100BD000184F00F08DFD009A019B801A9941220068
:100BE0002B00121A8B41002B18DD1100114800F068
:100BF000BFFE002816D0BB691E42FCD151464246BA
:100C00003B68535401239C46E244D345E1D150460E
:100C100002B0E0BCBB46B246A846F0BD002B01D1F5
:100C2000002AE2D101230A9A1370F0E700239A46C2
:100C3000EDE7C0460040034010B54024084A830059
:100C40009A181268C0005440C0222240054CA446A5
:100C500063441A60044B9C466044416010BDC0462A
:100C600004C0014004D00140004001400B4B800013
:100C70009C46604400290ED100230431002A00D193
:100C80001900802203685201594094460C236044A5
:100C90000B40036070470C210823EFE704C00140BC
:100CA0000123D02283404021120693629361094AB6
:100CB00083009A181268C0005140C0220A400649B9
:100CC0008C4663441A60054B9C4605236044436090
:100CD0007047C04604C0014004D0014000400140BC
:100CE0000FB400B5084883B003F09AFE049B002BB4
:100CF00007D005A91800019103F09EFC034803F0FA
:100D00008FFE012003F0B0FC84550110906B0110A0
:100D100070B5EFF3108C72B60D4D2B68002BFCD024
:100D2000BFF35F8F0724CB08C618C05C01230C40BB
:100D3000A3401C000440034207D103433370BFF3B8
:100D40005F8F2C608CF3108870BD1000FFF7C8FF18
:100D50002C0100D0F8B54746CE46884680B5EFF363
:100D6000108C72B6214D2C68002CFCD0BFF35F8F25
:100D70009A422CD8D4080727055D0619012417408C
:100D8000BC402C421FD007210127894609E0D40826
:100D9000055D06194C4639001440A1400C0029425B
:100DA00011D001329342F2D201204042BFF35F8F53
:100DB00000220E4B1A608CF3108800280FDBC0BC99
:100DC000B946B046F8BD2C4310003470EEE7BFF3CF
:100DD0005F8F00232B608CF3108801204042434634
:100DE000002BECD00898FFF77BFFC0462C0100D009
:100DF000044A1078431CDBB2172B00D91023137060
:100E00007047C046B801002000B5054B83B0010013
:100E1000009318221F230348FFF79CFF03B000BD77
:100E200094550110D06200200021044B044ABFF306
:100E30005F8F02C39342FAD17047C046000100D0D1
:100E4000800100D0054B064A1360064A13605360C8
:100E50009360D36013615361936170478080808099
:100E600000E400E004E400E01F2318401E3B834040
:100E7000002905D0C021044A49005350136070472F
:100E8000802201498B50FAE700E100E070B50D00C7
:100E9000EFF3108672B60F4A1368002BFCD0BFF335
:100EA0005F8F0D4B10309B6884001B590B4A934297
:100EB00003D09D4201D000F001FF074B9B681D51FC
:100EC000BFF35F8FBFF35F8F0022024B1A6086F380
:100ED000108870BD240100D000ED00E0C1010010B9
:100EE000024B9C4661448900016070474000003419
:100EF000F8B5134D134E2C00FF27B5421ED22368C0
:100F0000002B0FD0FFF774FF01002800FFF7E8FF68
:100F1000A780BFF35F8F0834B4420FD22368250047
:100F2000002BEFD1FFF764FF01002800FFF7D8FF87
:100F30002771BFF35F8F0834B442EFD3F8BDC046CA
:100F4000B4180020BC18002010B504000120FFF7E1
:100F50005BFF044B9C46604480002060BFF35F8FC2
:100F600010BDC046400000340A4B1968EFF31080F2
:100F700072B60A68002AFCD0BFF35F8F1B68BFF30C
:100F80005F8F00221A6080F3108840BF002000218C
:100F90007047C04620680020F0B5DE4657464E46F2
:100FA0004546E0B585B0EFF30582032313409A0070
:100FB00011000392B64A5258904601229A40914637
:100FC000B44B1A604B46B4484363434608229B5EC9
:100FD0009A46002B3DDA43469B881BB2002B00DB70
:100FE000A1E043469B79002B00D0F3E04346082460
:100FF0001C5F002C23DB42465269630094461B1998
:10100000DB0063449C68DD68631C00D10FE1A248EB
:10101000039984466144826A0B69A61A9B1A9E4210
:1010200015D34A46036A1A4211D09B4800F058FB78
:10103000241A8D41002D02DCC4D1002CC2D040BF47
:1010400005B0F0BCBB46B246A946A046F0BD0C6157
:10105000EBE7424652695B0093465344DB009B44F6
:101060005B469E68DF6800F03BFB801BB9410029AE
:10107000B1DB002F00DAE5E05B46884A1B6993424A
:1010800000D1D8E041465A460820085E5288000444
:1010900010435A465169984704000D0023002B4322
:1010A00000D1CFE0002D00DBE8E0361BAF4134007B
:1010B0003D005B469C60DD600021595E002900DA3E
:1010C00089E743465B6922009C462B004800401894
:1010D000C00060448668C768921BBB41002B00DAE1
:1010E00079E74346664602000094019519810CE0B9
:1010F0007B00DB19DB00F318009801999C68DD6820
:10110000001BA941002904DB1A000023D75E002F31
:10111000EEDA5B461F805346138043469B881BB222
:10112000002B00DA5DE743461A69EFF3108172B6CF
:101130001368002BFCD0BFF35F8F43469B88424669
:101140001BB29A4601235B4293801369BFF35F8F02
:1011500000221A6081F310885346002B00DA40E722
:1011600043465B699C46082343449B4653465F00C5
:1011700043465744FF0008229A5E67445E46BC68B7
:10118000FD68002A19DB3B000094019567469C46E8
:1011900004E01E000023F25E002A0BDB0098019998
:1011A00053009B18DB00FB189C68DD68001BA941FD
:1011B0000029EEDA6346BC461F0053463380002107
:1011C0007B5E3A809A46002BD0DA43469B79002B0F
:1011D00000D10BE70023424693714346464608215F
:1011E000595E08364B1C00D129E747468C465569A5
:1011F00002E006004B1C17D04B005B18DB00E81820
:101200000A00E95E43881BB2002BF2DA01235B423D
:10121000DC178360C4606245ECD031803B89944622
:1012200003803A814B1CE7D1B8466446E1E66B1C6B
:1012300000D0ECE6F9E65B465C692000236998473C
:10124000002821D15B4642461B8813811269EFF3C7
:10125000108372B611680029FCD0BFF35F8F42463D
:10126000594652880A804246514651801269BFF35E
:101270005F8F0021116083F31088ACE6064800F010
:101280002FFA24184D4114E76568246806E7C04624
:10129000BC6700203C70054000400540990F0010DD
:1012A00070B52E4C2569002D04D00A212C48FFF77B
:1012B00017FE70BD2B4E0321300000F007FAE660E8
:1012C000FFF796FD284B03229C46D02322701B0675
:1012D0001B6801216370254B6044A3600F238000CD
:1012E00020610220638063694942A1801980023134
:1012F000198647311D83585218315A5275325C395C
:1013000099521832013199521832013199521832DA
:1013100001319952083518329D52023118329952D2
:101320001832013199521832013199521832013173
:1013300099521832013199521832013199520C4B9D
:101340000C49DC6001303562FFF7A0FD012103206C
:10135000FFF78AFD084B1D60A7E7C046BC010020CF
:10136000206800200040054040000034FFFF1000CE
:10137000BC670020990F0010386005400048704796
:10138000BC01002070B5C646010000B50469EFF34A
:10139000108C72B620680028FCD0BFF35F8F02204B
:1013A0000D5E48696C0080466419E4004444002DD9
:1013B00001DB208848800869BFF35F8F0026066044
:1013C0008CF31088002D30DBE360638805980133CF
:1013D00020615B0406985B0CA26060611A1C002B04
:1013E00021D090B22B04628018430A69EFF3108673
:1013F00072B61368002BFCD0BFF35F8F8B882380FD
:101400008D800B69BFF35F8F00221A6086F310880E
:101410000B7801329A40CB6805498C4663441A60C8
:1014200040BCB04670BD0122DBE701204042F7E737
:101430003C20000010B543890A14934233DD530069
:101440009B184269DB00944604696344EFF3108CF7
:1014500072B62268002AFCD0BFF35F8F5A88090455
:1014600094B2090C8A4208D00369BFF35F8F00224F
:101470001A608CF31088002010BD802212021443E1
:101480005C80012302698371BFF35F8F00211160CB
:101490008CF31088054902788C469340C26801207D
:1014A00062441360E8E70020E6E7C0463C20000005
:1014B000F0B5CE46474680B504000D0083B0EFF38B
:1014C0000587002F0DD0364A0020536A8B4203D384
:1014D000926A0130A24250D303B0C0BCB946B046B4
:1014E000F0BD304B9846DB689946434648461E7827
:1014F00000F0F6F80B00494602000436B6007158B9
:1015000020008E1A2900801A99418F4211DC0ED0DA
:1015100020BF234A0020536AAB42DDD3926A0130D8
:10152000A242D9D2E81A421E9041C0B2D4E7864204
:10153000EED900F0DDF822002B00121A8B41002BAF
:1015400020DB00230193184B2200009340462B0020
:10155000FFF718FF011E15DD114B2E005A6A954248
:101560001CD89B6AA34217D34046FFF763FF0C4A7F
:101570000020536A9E42AFD8D0E7581A421E9041CD
:10158000C0B2A9E7064A0020536AAB42A4D3926ACC
:101590000120A242A0D2C5E79542E5D120BFE3E7F2
:1015A00000400540BC010020690F0010F0B5CE4698
:1015B0004746110080B583B004009C460C9D19433A
:1015C00000D16DE06146DB170193009353401E008C
:1015D000019B4B401F0000980199361A8F416346CA
:1015E0000A996B600B9BAC6029612A606B6100F00B
:1015F0007FF836184F41002F00DA59E02269EFF3E7
:10160000108972B61368002BFCD0BFF35F8F62693C
:101610000223E15E94464B005B18DB006344002923
:1016200001DB1A88628022699046BFF35F8F002237
:101630004046026089F3108800293DDB204A9E6005
:10164000DF601A615A885D6101325204520C101C2D
:10165000002A2BD082B25880080402432669EFF397
:10166000108772B630680028FCD0BFF35F8FA08867
:101670001880A1802369BFF35F8F0021196087F371
:101680001088104823788446013199400120E3688E
:1016900063441960EA6003B0C0BCB946B046F0BD0F
:1016A00000230126002701229C4698E70120D1E76C
:1016B0000126054F7642A1E7012200205242E9E7C8
:1016C000990F00103C200000FFFFFF7F10B5024A79
:1016D0000248FFF71DFB10BDB8550110D462002071
:1016E0000300416A0A00986A596A8A42FAD170472F
:1016F000034B596A0A00986A596A9142FAD17047B5
:101700000040054070B504000D00124A536A1900EC
:10171000966A536A8B42FAD13000190024184D4161
:10172000AB4211D80ED02B000A494A6A9A42FCD328
:1017300007D1084A02E0516A994202D1916AA14256
:10174000F9D370BDA642EED9012301246442E51706
:101750005B42E9E700400540F8B5040006200D00B3
:1017600000F006FA002842D0364B3749E2185342BF
:101770005A418023DB039C469205344B62441A6035
:10178000334B1A6010000B689843FBD12D4B80211E
:10179000E3185A4253412F4A5B00490099520620F0
:1017A00000F0E6F92900C00000F0E6FB0130C309B3
:1017B0001ED1402701226262A362266BF30722D466
:1017C000E36A254B0620E51800232B60266300F012
:1017D000CFF93900800000F0CFFB7022E36A5A4055
:1017E0007E2313402B601D4B23630323A364F8BDAA
:1017F0001B4A93421ED900231A4A1B4F6262A362FE
:10180000266BF307DCD5194B144AE3181A60656A96
:10181000A26A0620AD01AD1800F0AAF9144900F043
:10182000ABFBAD020100280000F0A6FB0021FFF792
:1018300069FFC5E74006800E9F011A003F180300AC
:10184000B9E7C0460080FCBF08C0004000E000408F
:1018500000F00040946900202C10000001030000FB
:10186000FEFF0000FFFF0000C0FF3F00303000001F
:101870004E0E0000064B9C46604443425841802374
:10188000DB039C468005034B604418607047C046EC
:101890000080FCBF00E000400539013AF8B5D200F5
:1018A0004C0105001443002B05D002222243012BDA
:1018B00024D105331C432E6BF30708D4EA6A104B7E
:1018C00062406E24EB1814401C602E63F8BD0D4B73
:1018D0000D4AEB181A606F6AAA6A0620BF01BF188A
:1018E00000F046F9094900F047FBBF02010038004B
:1018F00000F042FB0021FFF705FFDFE71400DAE705
:101900002C10000030300000010300004E0E0000DB
:10191000F8B54B1E9941066B05000C01F30708D47E
:101920001023E96A4C401C400D4BEB181C602E63E1
:10193000F8BD0C4B0C4AC3181A60476A826ABF0193
:101940000620BF1800F014F9084900F015FBBF028B
:101950000100380000F010FB0021FFF7D3FEDFE7A5
:101960002C10000030300000010300004E0E00007B
:10197000074A30B51024956A03E0936A5B1B8B42DB
:1019800004D883691C42F8D1012030BD0020FCE757
:1019900000400540F8B5DE464E4657464546E0B5A0
:1019A0008B4605000A991800160000F0E5FA0A9B1C
:1019B0006C001F02324B64199C46A40064446368A7
:1019C00081469F4200D967602B1FDBB29846012BEE
:1019D00030D9C02380229B01E31812011A60294BE1
:1019E000AD0059599A4600291BD1226876017240F0
:1019F000E0268023164042465B01E3181E60012A60
:101A000030D9802380229B01E31812011A605346CB
:101A10004A4667605A51F0BCBB46B246A946A0464A
:101A2000F8BD586900F0A8FA431C5800C0180338E4
:101A3000FDD2DAE75B46012BCBD1C02303229B0109
:101A4000E3181A60023AA3681A42FCD0E023226825
:101A5000760156401E4080230A4A5B019246E318F5
:101A60001E60AD005A462168514003220A401A60A8
:101A700001225B469A40A3681A42FCD0C1E7C046E7
:101A800000800040E8620020F0B546464F46D6464A
:101A9000C0B51F00344B44009C462418A400644485
:101AA000636888461600FF2B02D880235B006360C2
:101AB000031FDBB29A46012B30D9C02380229B0141
:101AC000E31812011A60294B8500595999460029DB
:101AD0001BD1226876017240E026802316405246D0
:101AE0005B01E3181E60012A30D9802380229B010C
:101AF000E31812011A6080235B0063604B465F515C
:101B0000E0BCBA46B146A846F0BD586900F034FAC8
:101B1000431C5800C0180338FDD2DAE74346012BB6
:101B2000CBD1C02303229B01E3181A60023AA368B9
:101B30001A42FCD0E0232268760156401E408023E2
:101B40000A4A5B019146E3181E60850042462168FF
:101B5000514003220A401A60012342469340A26882
:101B60001342FCD0C1E7C04600800040E86200207C
:101B7000014B8000C0587047E8620020F8B50400AF
:101B800020481D0017000E0000F0F6F90100380093
:101B900000F0F2F9069B29041B0319432368002B6C
:101BA0001EDB194B194DE21853425A4180235B0149
:101BB0009C461203164B62441A60164B1A601700BB
:101BC0002B689F43FBD1144B2660E2182123A060B1
:101BD00013602368002BFCDA0823E1601360F8BD72
:101BE0003F2322681340B342DBD1A3681B051B0DC2
:101BF0008342D6D1EE22E368D20213408B42D0D189
:101C0000EDE7C046001BB7000040FDBF08C0004024
:101C100000E0004000F00040043000008023024A51
:101C20009B000B43D362704700800540142310B51E
:101C30000100188804331B88984710BD162310B57F
:101C40000100188802331B88984710BDF8B5474635
:101C5000CE4680B50F1E19D01423994604330400D4
:101C60000025012698464B461888434621681B8864
:101C7000984701C4431E9841013540420640AF4297
:101C8000F1D13000C0BCB946B046F8BD0126F8E736
:101C9000AA23064A1B0113608D235B00D36004490D
:101CA000044B19605368002BFCDA70470040024077
:101CB00000B0FA00006002407047C04610B501480D
:101CC000FFF70EF8DC55011070B5074D074EB54211
:101CD00009D20024013E761BB60808CD98472300A0
:101CE0000134B342F9D170BD0855011044550110BB
:101CF000054B064A06491A60064A074B1A6010004F
:101D00000B689843FBD1704700E00040BFCDFBFE5D
:101D100008C00040FE7F3C0000F00040044BDB6C3C
:101D2000002B03D18022034BD2021A607047C046B9
:101D3000000011504C201150044A054B1A60054A0E
:101D40001368DB018033FBD17047C046FFFFFF0102
:101D500000F0004008C000404022034B9A675A67D9
:101D60001A67DA667047C04600F0014010B5FFF709
:101D70005BF810BDF8B52D492D4C2E4D641AA610F8
:101D80003200302E00D930222800920001F02EF9C6
:101D9000BC2C41D80123711C08009C46264A3029DE
:101DA0003DD92F272C196407E30FBF1B052F19D925
:101DB000302917D8002B36D0B1006A506146CC1AB2
:101DC000F3189B006108EB18C900C9181A605A6023
:101DD00008338B42FAD101232100994346188C42E3
:101DE0001AD0711CB300EA50302915D089006A500E
:101DF000B31C2E2E10D09B00EA50F31C2D2E0BD0BE
:101E00009B00EA50331D2C2E06D09B00EA50731D18
:101E10002B2E01D09B00EA50084B9D60F8BD2F335C
:101E20009B1B9C46BDE73000C8E7C0460001001080
:101E3000C001001000000020C101001000ED00E012
:101E4000002310B5294C82B0A367FFF721FF0122C0
:101E5000274B1A60636C012BFCD10322254B1A60BF
:101E6000224A936B012BFCD1013300930121224ABA
:101E700022480433FFF782FE052301210093204A04
:101E80002048FFF77BFE0022022104201E4BFFF7B3
:101E9000FBFD0022012105201C4BFFF7F5FD002270
:101EA000002107201A4BFFF7EFFD00220021082038
:101EB000174BFFF7E9FD8023DB0000930022002190
:101EC0000920134BFFF766FD0022104B002106206E
:101ED000FFF7DAFD0420FFF74BFE0E4900F04CF847
:101EE00001000020FFF79AFE02B010BD0080004004
:101EF0003CB0004030B00040002F685900800240E4
:101F0000008C864700C00240001BB7004059730791
:101F1000006CDC0240420F0001480421014B1847CD
:101F2000E00100204D1C0010124A936F9B0815D24F
:101F30009066D166002905D0FFE7FFE7FFE7516F04
:101F4000106F704704B580210906C2175140002860
:101F500000D0C84313F0C8FA002104BDF0B5146ED8
:101F6000556E576F166FFFF7E3FF14665566576798
:101F70001667F0BD000000D0114A936F9B0813D282
:101F800010665166002905D0FFE7FFE7FFE7516FB4
:101F9000106F704704B5002801D00020C04313F033
:101FA000A3FA002104BDC046F0B5146E556E576FFC
:101FB000166FFFF7E5FF1466556657671667F0BDA5
:101FC000000000D094464A4A926F9208624601D2BD
:101FD00028E0C046F0B5464E346E756E776F366FAA
:101FE00000F020F89446424A146655665767166713
:101FF0006246F0BD94463E4A926F9208624601D214
:1020000054E0C046F0B53A4E346E756E776F366F59
:1020100000F04CF89446364A1466556657671667C2
:102020006246F0BD002B24DB11D000293EDA00B55A
:10203000C943404200D1013100F038F8C943404261
:1020400000D10131DB43524200D1013300BD002AEF
:10205000EBD1002801D1002905D00020C90FC90704
:1020600001D1C043410800B513F036FA0022002325
:1020700000BD00B500290ADBDB43524200D1013329
:1020800000F014F8C943404200D1013100BDC943FA
:10209000404200D10131DB43524200D1013300F014
:1020A00005F8DB43524200D1013300BD002923D1A2
:1020B000002B18D1002A0CD0BC460D4F38667A662A
:1020C00000210023FFE7FFE7FFE77A6F386F6746DD
:1020D0007047002801D00748010000B513F0FCF953
:1020E0000022002300BD02000B00002000217047E9
:1020F000000000D0FFFFFFFF002B00D0BFE0130C5B
:1021000028D1002AE7D080B4114F39667A66FFE7FC
:10211000FFE730B4040C7B6F396F1B0423433B662D
:102120007A66FFE7FFE7FFE7C04684B27B6F3D6F4B
:102130001B0423433B667A66FFE7FFE7C0460023A4
:102140002C042D0C7A6F386F00196941B0BC7047B0
:10215000000000D0F0B594460025140E01D1120203
:102160000835140F01D112010435940F01D19200EA
:102170000235D40F01D152000135D40B0134254F63
:102180007C66254C3C660E0C93B2FFE7FFE7FFE749
:102190003C6F6643360C7703BE467343DF0B5B042C
:1021A000C01AB941130C7343DB18C91ACE08664331
:1021B000360CB64493B273431F0F1B01C01AB941CA
:1021C000130C73431F0B1B05C01AB941860D8F02F8
:1021D0003E436643360C092D24DB520A7243801AB3
:1021E0007703460A6643360C16235B1BDE40DF404E
:1021F000BF1964466643821B7046043506330100EE
:10220000D940A840C01900D30131A24206D2002310
:10221000F0BD0000000000D0FFFFFFFF121B0130E7
:10222000F3D3F1E709277F1BFE406446A2B2724355
:10223000801A00D20139220C7243130C1204821A44
:1022400099410B007046043513370100F940A8404E
:10225000801900D30131002B02D1A2420AD2F0BD75
:10226000013000D30131121BFAD2013BF8D1A24256
:1022700000D2F0BD013000D30131121BF7E7F0B5F9
:102280001C0C00D080E00CB400251C0A04D11B02F9
:10229000160E3343120208351C0B04D11B01160F16
:1022A0003343120104359C0B04D19B00960F33433A
:1022B00092000235DC0B02D192185B4101351C0003
:1022C000971864410134464F7C66464C3C660E0CC0
:1022D000FFE7FFE7FFE7C0463C6F6643360C770336
:1022E000BE4697B27743C01B00D20139C01B00D253
:1022F00001399FB27743C91BC91B170C77437E0472
:10230000FF0B801BB941CE086643360C0C2D33DB26
:10231000B644120B1F053A431B0B97B27743C01B01
:1023200000D201399FB27743C91B170C77433E0493
:102330003F0C801BB941860D8F023E43664329271F
:102340007F1BFE400C3D7746AF40BF1930BCA2B2A8
:10235000ABB272437343801A9941220C7243130C3F
:102360001204801A994102000B000137001BA94199
:10237000F9D2781E0021F0BD0C277F1BFE40774666
:102380007F0BAF40FF19E0E700245D1C07D0144F1E
:102390007D663966FFE7FFE7FFE7FFE73C6F95B231
:1023A0009EB265436643401BB141150C1E0C65434C
:1023B000664336042F0C3E432D04401BB141994225
:1023C00004D202000B0020000021F0BD01D1904298
:1023D000F7D3801A994101349942F2D3F6E700000D
:1023E000000000D0FFFFFFFF48404140484018B4C4
:1023F0001B4B5B68FC46019308BD04DFA726001059
:1024000018B4174B1B68FC46019308BD00DFB126CA
:1024100000109446134A926F920809D2624618B48B
:102420000F4BDB68FC46019308BD0CDF69290010E7
:102430000C4AF0B5146E556E576F166F6246FFF773
:10244000EEFF084A1466556657671667F0BD18B464
:10245000034B9B68FC46019308BD08DF0D28001064
:1024600018600020000000D0FFB5504042405040AE
:1024700059404B40594000E0FFB5154F4C00640DEA
:1024800003D0BC4204D10C0314D80020090D090567
:102490005C00640D03D0BC4204D11C030AD80022A6
:1024A0001B0D1B0501264B4009D44B4003D58B4225
:1024B00000D18242FFBD9942FCD19042FFBD0B4347
:1024C000DB1803431343F5D0C9434918FFBD00008F
:1024D000FF07000000B5FFF7CFFF804100BDC046F9
:1024E00000B5FFF7C9FF01D9002000BD012000BDE4
:1024F00000B5FFF7B9FF01D9002000BD012000BDE4
:1025000000B5FFF7B1FF804100BD012040054A0042
:10251000121804D85A00121801D800207047012060
:10252000704700000021002805D17047C1174840BE
:10253000401AFAD0C90713B5064B1B6898470CBC64
:10254000441CA2401005120B0349091B090519433D
:10255000114310BD1C6800201F04000010B54C0082
:10256000620D8023D218DB00D21A5B057E2A10DDB3
:102570009E3A13DACC170903490819435242D14055
:10258000640001341532202A05DAD0400843604344
:1025900010BD002010BD0846604310BDC80FC01814
:1025A000013810BD18B4044B5B6AFC46019308BDAA
:1025B00024DF192B001000001860002018B4044B11
:1025C000DB6FFC46019308BD7CDF992B00100000F7
:1025D00018600020132370B51D78012D19D014DD6B
:1025E0001E48FFF72BFB06001D48FFF727FB1D4C7D
:1025F00080223100200000F0F9FC022D06D01A489C
:10260000FFF714FB194B186070BD164C184BA364F0
:10261000F5E7174B134C23606360A360E36023610D
:102620006361A361E36123626362A362E362236384
:102630006363A363E36323646364A364E364236564
:102640006365A365E36523666366A366E366236744
:102650006367A367E367A364D1E7C0465344000000
:1026600053460000186000204C3300001C68002016
:102670007526001007B5604601880A0A0230DF2A75
:10268000FAD1C9B2820804D30288408800041043FA
:1026900000E00068014A5050039007BD1860002018
:1026A0000FB403BC0CBCF0B50124E407634000E0A8
:1026B000F0B50C0DCF0F661E3605891B640503D3DC
:1026C000C943404200D30131640D03D0661CF60AB1
:1026D00007D0E41B00207F00791C89078912803C09
:1026E00024031D0DDF0F6E1E36059B1B6D0503D3E6
:1026F000DB43524200D301336D0D03D06E1CF60A4A
:1027000007D0ED1B00227F007B1C9B079B12803DA6
:102710002D032F1B661B58D4A446202E46DA2037E3
:102720001400BC401D00BD40F24033412A438018D4
:102730005941CB0F05D0C943C043002264425041E8
:10274000514162464D0D28D10D0D07D100281FD0F3
:10275000241940414941013A0D0DF9D0640006D3D6
:10276000013000D30131002C01D140084000013A72
:102770000BD4941CE40A04D112051144DB0719445C
:10278000F0BDD907204B194300E0D9070020F0BD68
:102790000029DDD1002CDBD1F0BD0132C607400895
:1027A000CD0728434908002EE1D0D9E73C2E29DA8D
:1027B000203E40371400BC4000D00124F2401443B6
:1027C0001A00BB401C43D317ACE7AC46202F08DAF5
:1027D00020360400B4400D00B540F840394128438C
:1027E000A5E73C2F0CDA203F40360400B44000D06F
:1027F0000124F84004430800B1400C43C117EAE744
:1028000010001900002494E70000F07FF0B50C0DD3
:10281000661E3605891BE60A6405640D02D0651C38
:10282000ED0A04D0002001210905803C2403A446C0
:102830001C0D671E3F05DB1BE70A6405640D02D013
:10284000651CED0A04D0002201231B05803C2403F3
:102850007740644497B484B296B27443070C7E43C5
:10286000150C6F4380B26843361802D30120000470
:102870003F183004350C00197D41844688B29AB265
:1028800050430C0C62431F0C7C438EB27E43921962
:1028900002D301263604A4191604170C3618674112
:1028A00001BC81B29AB25143040C62431B0C5C43DD
:1028B00080B25843121802D30120000424181004D7
:1028C000130C401863412D185E410020474106BC9F
:1028D00088B293B258430C0C6343120C544389B230
:1028E00051435B1802D301210904641819041A0C1E
:1028F000091862416D1856410020474118BCF90281
:10290000720D1143F0026A0D1043ED020A0D03D15E
:102910006D1940414941013B124E9B1B7600B34269
:102920000ED26D0007D30130002671416646354353
:1029300001D1400840001B05C918E4072144F0BD3F
:102940000BDA013306D1013004D101314F0D01D032
:102950004908F2E7E1070020F0BD0136310500200B
:10296000EBE70000FF030000F0B51C0D671E3F05FC
:10297000DB1BE70A6405640D02D0661CF60A04D06E
:10298000002201231B05803C2403D0252D060026B0
:10299000F6432E661E096E66CE0FF619B446490040
:1029A0004F0D02D07E1CF60A03D000200021403FCC
:1029B0003F033E1BB600B444013F7F05C91B4908D5
:1029C0002E6F013676089C02950D25437543ED1355
:1029D0007543AD1301356D10F603761B0CB4CC02B4
:1029E000450D2C43A2B2B3B25A43270C7B43350C9E
:1029F0006F43A4B26C431B1902D3012424043F1972
:102A00001C041D0CA4187D4124196D41009A91B23B
:102A1000ACB26143170C7C432B0C5F4392B25A4318
:102A2000A41802D301221204BF182204230C521846
:102A30007B41019C6C431B19520ED9010A4344018E
:102A4000A01A81B2B2B2514303145A43360C7343F5
:102A500087B27743D617D21900277E4136049B19D7
:102A60001704160C7F185E417316ED18F30100264B
:102A700080337541A90F06D16400690AE8055B0A35
:102A8000184309D22FE00422944480337541A90AE7
:102A9000A8059B0A184326D3404149412404009AC3
:102AA000019B0D005543641B4343E41A95B286B263
:102AB0007543170C7E43030C5F4392B25A43B6181A
:102AC00002D301221204BF183204330C52197B4185
:102AD00052429C41002C02D4002201305141400856
:102AE000CA071043490802B06246D7079210084B44
:102AF000D218084B9A4203D212058918C919F0BDA1
:102B00000020002A01DC3900F0BD01331905F5E78A
:102B1000FD030000FE070000002200B5203200F097
:102B200004F8080000BD000000220B150AD410B5FF
:102B3000944600F05FF81414013400DA0021CB173A
:102B4000144C20470020002170476244343A0CD4D2
:102B50000C2A07DA04009140904052422032D440BF
:102B6000214310BDD843D94310BD203207D40C46B1
:102B70009440524220321141D040204310BD080001
:102B8000C917203203D452422032104110BD180020
:102B9000190010BD4B2B00104A00520D144BD21AD5
:102BA00013DDFF2A1EDAD205CB0FDB071A43C30061
:102BB000400F0903490A084310435B0001D301D0C9
:102BC000013070474308FBD2704702D0C80FC007DE
:102BD00070470A0312130132F8D1420F072AF5D1C8
:102BE000012200E0FF22C80F00028018C0057047D4
:102BF000800300000A0DCC0F531E1B05C91A520595
:102C000003D3C943404200D30131520D03D0531CBA
:102C1000DB0A07D0121B00206400611C890789129F
:102C2000803A1203014BD21A70470000FF030000E4
:102C300051434343C9188C46110C83B24B4310B423
:102C4000040C614392B280B2504362431C041B0CDB
:102C5000001910BC59411304120CC01851416144B1
:102C6000704700004840414048400E4B5B681847A1
:102C70000C4B1B6818470C4A936F9B0802D2094BF8
:102C8000DB681847F0B5146E556E576F166FFFF777
:102C9000F6FF054A1466556657671667F0BD014B87
:102CA0009B68184718610020000000D007B5484015
:102CB0004140484001E0C04607B54200120E03D033
:102CC000FF2A03D1420218D8C00DC0054A00120ED7
:102CD00003D0FF2A03D14A020FD8C90DC90501222A
:102CE000414005D4414001D5814207BD884207BD1E
:102CF0000143491801D0C043001807BD00B5FFF7D4
:102D0000DBFF804100BDC04600B5FFF7CFFF80412B
:102D100000BD491A002807D108467047C10FC907EE
:102D200000D54042002817D0F44603B40B4B1B6873
:102D3000984706BC81409E384042803107D20B063E
:102D400007D04900490AC0051043084360470130D5
:102D5000F8E7490A8902F5E7704700001C6800207F
:102D600041000A0E80231B067E2A0BDD9E3A0BDAF9
:102D7000C1174002400818435242D0404900013177
:102D80004843704700207047C00FC0180138704793
:102D9000C0420DD300B540004008002100F012F8F9
:102DA000002801D4404200BD8020000600BD000084
:102DB000034BDB69FC4618471CDF112F0010000095
:102DC00018610020014B5B6A184700001861002061
:102DD000034BDB6FFC4618477CDF292F00100000F7
:102DE00018610020034B9B6DFC46184758DF892E65
:102DF0000010000018610020132310B512481C7841
:102E0000FEF71CFF0100012C0AD003DD80220F48D1
:102E100000F0ECF80E48FEF709FF0E4B186010BDED
:102E20000A4C5422200000F0E1F80B4B6365A365C7
:102E3000E36523666366A366E36623676367A36748
:102E4000E3672362E361E5E7534600001861002071
:102E50004C3300001C6800205D2E001007B5604652
:102E600001880A0A0230DF2AFAD1C9B2820804D3E3
:102E7000028840880004104300E00068014A505076
:102E8000039007BD1861002030B51D4CA446E047F3
:102E900004460846214614461A462346E0474001A8
:102EA0004901D418641201340AD4D41A05DA6442F0
:102EB00020411C2C0DD3C0170BE021411C2C08D342
:102EC000002804DA0F4B1868C917484014E0C817E7
:102ED00012E000220B4B002802DA404249421A68F5
:102EE0000124094DA8471046064B1A68841802D2DF
:102EF000841A00D4A01A01380022044B184700009D
:102F0000C1290000FC2C0000972B0000192B0000A9
:102F10000021C2158032803201D0024A10470020C1
:102F200070470000CD2A0000C30FDB0741000A0EE6
:102F300007D0FF2A08D00909054A89181943400714
:102F400070471900002070470249C918FAE70000CD
:102F5000000000380000F07F10B5040010F0E6F922
:102F6000002804D0034B04199C4200D810BD02482D
:102F7000FDF7B6FE00000420E855011070B505000D
:102F80000C0010F0ADF86C43002804D0034B04197A
:102F90009C4200D870BD0248FDF7A2FE000004204C
:102FA000E855011010B50C0010F06AFD002804D09F
:102FB000034B04199C4200D810BD0248FDF790FE57
:102FC00000000420E855011010B510F0B9F910BD4B
:102FD00001480421014B1847F00100204D1C00104E
:102FE000014B1B6818470000F0010020014B5B6893
:102FF00018470000F0010020EFF3108C72B6074B69
:103000001A68002AFCD0BFF35F8F41680068BFF3E5
:103010005F8F00221A608CF310887047340100D053
:1030200030B514001D00EFF3108172B6074B1A681B
:10303000002AFCD0BFF35F8F04604560BFF35F8F51
:1030400000221A6081F3108830BDC046340100D0E0
:1030500030B5010014001D00EFF3108C72B6094862
:103060000368002BFCD0BFF35F8F0A684B680C60CD
:103070004D60BFF35F8F002101608CF3108810005A
:10308000190030BD340100D09A4200D288547047F4
:103090007047C046F8B557464E464546DE46E0B551
:1030A00099460A9B07009A460D9B88469346150051
:1030B0000B9E9B0710D10C9B9E420DD29D1B1400B2
:1030C0000E005D4422004B46013431002020B847F9
:1030D000A542F7D1B0460B9E002E27D04446751965
:1030E0005346AA1B013E985D21004B46B847002E6F
:1030F000F6D123002C0098460D9B9B070FD55B460D
:10310000E51A0C9BAB420AD94646984622004B462C
:10311000310020200135B8470134A845F6D82000F9
:10312000F0BCBB46B246A946A046F8BD2C00E3E77A
:10313000F0B54F464646D646C0B584B098460EAB6D
:103140001B78129F994694460D9C109B119EBA07BE
:1031500025D4002E4BD19C4200D3BFE001223A403F
:1031600092461F2C00D9B8E00C9A551E302201E07F
:10317000202C03D001342A55A342F9D85246002A04
:103180000DD0A6420BD9202C44D00C9A551E3022CB
:1031900001E0202C3ED001342A55B442F9D1FA0680
:1031A0004DD57A053FD4002C39D10F9B102B00D17F
:1031B00079E00F9B022B00D18AE030230C9A012486
:1031C00013704B46002B3FD02D230C9A135501341E
:1031D0000C9B624600930397434602960194FFF7C7
:1031E00059FF04B0E0BCBA46B146A846F0BD012282
:1031F00015003D40AA463A422FD04A46002A02D145
:103200000C323A4200D0013E9C42BAD21F2CABD9BC
:10321000202E27D92024FA06DAD57A0503D4A34232
:103220002DD0A6422BD00F9B102B32D0022B20D0BA
:10323000202CCDD030220C9B1B191A700134202C6D
:10324000C6D04B46002BBFD17B070DD43B07BFD563
:1032500020230C9A13550134BAE79C429FD21F2CAD
:1032600000D881E720249AE72B230C9A13550134C8
:10327000AEE7202CACD00C9B1B1901343AE0631E46
:10328000012C92D00F9A102A2AD0022A2FD01C008B
:10329000D0E7BB060ED4202C9AD00C9B1A1901340F
:1032A00078231370C4E7BB060DD478230C9A01244D
:1032B0001370BFE7202C00D18AE758220C9B1B1902
:1032C0001A700134B4E758230C9A01241370B1E743
:1032D0000C9A603301241370ACE7202400265EE7CB
:1032E000023CBA06E9D40C9A12191C00D8E70C9AD1
:1032F0009246534462221A709AE7C04610B50028DD
:1033000000D110BD01F040FBFBE7C046F0B5DE4642
:1033100057464E464546E0B59BB09B46249B8946A2
:103320009846259B0B900C924046424619009A46BF
:10333000FFF7EBF8002800D0D8E0012240465146C4
:10334000774B5242FFF7DCF8002800D0CEE0012294
:1033500040465146734B5242FFF7BCF8002800D05C
:10336000C4E00022002340465146FFF7B3F800288E
:1033700000D0B9E1424653460A9209938023289A25
:10338000DB001A400E92289A1A4201D10623269396
:103390000A9A099B1600134300D0C7E0289B00251A
:1033A00000261B0500D49BE100230D93269A0D9B5C
:1033B0009A4200DC9FE1D01A431E26938023289A6C
:1033C000DB001A430023002728920D93279B00243B
:1033D000BB4200D9DC1B0223289A1A400E92289A7D
:1033E000134203D07B427B415B421C400D9B002B70
:1033F00007D00A9809992A003300FFF70AF80A90C3
:1034000009910022002340465146FFF763F8002847
:1034100005D0802000068446099961440991289AC4
:10342000414B0B9D13400493269B0A9A0293099BE0
:1034300003940092019349465B4628000C9A00F0E1
:103440008BF90400002F62D0289B220098061F23CE
:10345000C0179843631C984649465B466530A847A9
:103460000D9B0025DA179C18DB0F9A465440013F4C
:1034700001E0202D13D00AAA94461F2320006344A4
:103480000A2101355E19FEF777FD303131702000D9
:103490000A21FEF771FD26000400092EE9D8052354
:1034A0000693002304930A330393534605970B9F17
:1034B000029312AB009342465B46494638000195A1
:1034C000FFF736FE0E9B0400002B20D00C9BC51A84
:1034D000279BAB421BD91E0022005B464946202099
:1034E0000135B8470134AE42F6D810E0289B424679
:1034F0000493279B49460393269B0B9802935346BC
:10350000009201935B460C9A00F026F9040020001B
:103510001BB0F0BCBB46B246A946A046F0BDC046B3
:10352000FFFFEF7FFFFFEFFFFFF7FFFF734B099FE9
:103530009C467800400D6044FEF7F8FF704A714BDE
:10354000FEF785FF704A714BFEF75AFF3B03704A46
:103550001B0B1A4304000D00300011006D4B0022BC
:10356000FEF745FF6C4A6D4BFEF771FF02000B0042
:1035700020002900FEF744FFFEF7F0FF0D90FEF754
:10358000D5FF674A674B04000D00FEF760FF00227D
:10359000654BFEF735FFFEF7E1FF644A0600644B1A
:1035A00020002900FEF753FF040030000D000F96A5
:1035B000FEF7BCFF5F4A604BFEF749FF02000B00BD
:1035C00020002900FEF713FF02000B0006000F0089
:1035D000FEF73DFF320004000D003B0030003900D3
:1035E000FEF70EFF002210901191544B200029008D
:1035F000FEF70FFF0022524BFEF702FF02000B0006
:1036000020002900FEF705FF00224E4BFEF7F8FED2
:1036100002000B0020002900FEF7FBFE0D008021B8
:10362000040032003B000020C905FEF7E0FE020066
:103630000B0020002900FEF7E3FE02000B001098AB
:103640001199FEF7E6FE0022314BFEF7D9FE3E4B04
:103650000F9C9C46644400222305FEF7F8FE0500FB
:103660000E0002000B000A980999FEF733FF0028AC
:103670000AD00D9B2800013B31000D930022304BF6
:10368000FEF7C7FE05000E00C6270D992B0063311B
:103690008F42BF4128997F420437090500D495E63F
:1036A000334300D182E6099C284A2100284B0A981E
:1036B000FEF71EFF002808D000222100254B0A98A3
:1036C000FEF708FF002800D070E6269B002B00D1F3
:1036D0007CE60E9B5A1E9341269AD31A269375E6D2
:1036E000002304270D9371E643460A9380231B06AB
:1036F0005344099342E6002326935FE601FCFFFF53
:10370000FB799F501344D33FB3C8608B288AC63FD0
:103710000000F03F0000F83F61436F63A787D23F8E
:1037200071A379094F930A400000E03F1655B5BBDD
:10373000B16B0240EF39FAFE422EE63F00002C400A
:103740000000244000001840FF0300002D431CEB44
:10375000E2361A3F80842E41F0B54E46DE4657468B
:103760004546E0B597B09946209E219F229B83460F
:10377000984607910C923B00320030003900FEF76A
:10378000C4FE002800D0A9E1012230003900CA4B54
:103790005242FEF79FFE002800D0E1E001223000F7
:1037A0003900C64B5242FEF7ABFE002800D0B7E00E
:1037B000002230003900C24BFEF7A2FE002800D0E4
:1037C00099E0002230003900BE4BFEF783FE00284E
:1037D00000D090E00022002330003900FEF77AFE8E
:1037E000002800D0B1E000230D93249B5B0501D499
:1037F0000623984608AB9C461722002430234146F6
:10380000624404E0013413550139202C01D0092908
:10381000F8D8884630003900FEF7A0FE4346DA00AB
:10382000A94B05009B181A685B6808920993FEF77C
:103830007DFE02000B0030003900FEF7D8FD089A2B
:10384000099BFEF704FE0A900B91FEF7ABFE824641
:10385000FEF768FE02000B000A980B99FEF7C7FD01
:1038600000229A4B0A900B91FEF74AFE002800D1E5
:10387000C0E001239C46E2445046FEF753FE02009E
:103880000B0008980999FEF72BFE002802D00023B0
:103890009A4601354346002B6AD008AB17269C4652
:1038A00008956644554614E001235B4243440A21CF
:1038B00028009A46FEF760FB013430313719397021
:1038C00028000A21FEF758FB092D00D8D0E0D04689
:1038D0000500202CE8D10EAB98460323249A134010
:1038E000012B00D196E02023249A01930392239A7E
:1038F000434602921EE0249B58460493239B009665
:103900000197039343460C9A029307994B46FFF79E
:10391000FDFC17B0F0BCBB46B246A946A046F0BDC0
:10392000249B5B070ED40322694B249901920391D7
:1039300023990291009358464B460C9A0799FFF73A
:10394000A9FBE6E70422634BEFE73B0032000020CF
:103950000021FEF74CFD012306000F000D9344E704
:10396000249B0393239B0293042301935A4BE1E787
:103970002800FEF7DBFD02000B0030003900FEF7E7
:1039800036FD524B002206000F00FEF7A3FD0EABE2
:10399000984600280AD10022300039004B4BFEF730
:1039A000AFFD002802D1EB0700D50135202C94D0C3
:1039B00008AA94461723280063440A2101341E19DB
:1039C000FEF7B2FA3031280031700A21FEF7ACFA66
:1039D000051EEBD10323249A1340012B1BD0202C6E
:1039E00000D180E70D9B002B35D02D224146631C72
:1039F0000A5579E700220A980B99344BFEF76AFDC5
:103A0000002800D046E75346002B51D101239C46A5
:103A1000E2443FE72024239B002BE0D00D9B002BAA
:103A200003D1249A0C33134202D0239B013B2393EE
:103A3000239BA342D3D908AB9C4617223023624470
:103A4000202C00D14FE72399013413558C42C6D066
:103A5000202CF8D147E7249B5B0724D4249A230029
:103A6000120700D440E72022414601330A553BE7C4
:103A70005746089D202C00D12DE7220030214046DA
:103A8000002F09D00132B154202A00D123E7D343BB
:103A90001B191B18002BF5D10EAB98462E2341465F
:103AA000541C8B5482E72B224146631C0A551BE7AA
:103AB000DB0700D4EEE6A9E7FFFFEFFFFFFFEF7F94
:103AC00065CDCD4165CDCDC1885801100000E03FE6
:103AD0008C560110905601109C560110249B0393A4
:103AE000239B029303230193004B23E79856011075
:103AF000F0B5DE464E4657464546E0B59FB01C0041
:103B0000289B91460993C94AC94B8B4608901A6075
:103B1000002900D118E2002320789A46002800D11D
:103B20001AE226001D005C460AE02A006F1C4B4684
:103B3000089D2100A8473D0001363078002870D04C
:103B40002528F2D110239B46083B9A46043B984611
:103B5000023B00219C46721C107816000300203B9B
:103B6000DBB2102B03D8B34F9B00FB589F460300DA
:103B7000303B092B32D900230A932A2868D000232E
:103B800098462E283ED00300683BDBB2122B1CD88F
:103B9000A94A9B00D3589F46012301321943DBE712
:103BA000634601321943D7E7434601321943D3E74D
:103BB0005B4601321943CFE7534601321943CBE745
:103BC00080235B007078194301360300253BDBB28C
:103BD000532BAAD8994A9B00D3589F46002703002D
:103BE000B800C01901364000C018337830381A00C8
:103BF000303A0700092AF3D90A90180000239846A2
:103C00002E28C0D180237078DB0019430300303B9D
:103C1000721C092B00D8A1E12A2800D1B2E11600BC
:103C2000B1E7A346AA462C00D14503D801235B4245
:103C30004B449A464B46524659460020089DA84799
:103C400020001FB0F0BCBB46B246A946A046F0BD5E
:103C5000099B40CB0A96002E03DB50780993561C33
:103C60008DE72838014370420A9009935078561C1A
:103C700085E7782800D1DFE1582800D14CE26F2891
:103C800000D14FE3622801D100F030FC10230A007C
:103C90009A430B92692801D000F0A9FC0A230C93E7
:103CA0004B0500D5D0E10B9A802311009B001940F1
:103CB0008B461A4200D0A1E2802311005B0019401C
:103CC0008A461A4200D0B6E313005B0600D5EDE247
:103CD000130009991B0601D400F076FC08C91BB239
:103CE000D8171A18424092B209919346DA0F1292ED
:103CF000002B09D1802310220B99DB000B4091434C
:103D00000B91002B00D0E4E20B9A6123920600D5C0
:103D100041230EA91F228C46DBB262440A3B5F4658
:103D20001395A34655460C9CB2460D9316000AE027
:103D30003033DBB201357355A74200D2EDE2202DBE
:103D400000D1EAE2070021003800FEF715F9CBB2F6
:103D50000929EDD90D9A94466344DBB2EAE7802342
:103D60009B007078194301362FE77078682800D1DE
:103D7000CDE180230136194327E770786C2800D104
:103D8000BFE180235B00194301361EE7462800D1BE
:103D90009BE10722099B0491073393430A9A190078
:103DA0000392424602920CC908980092019309912D
:103DB0002A004B462100FFF7CFFC01360500BCE688
:103DC0002A006F1C4B46089D21002520A84701367C
:103DD0003D00B2E68B0700D4ADE1099B2A009A466C
:103DE0006B1C9846534601CB21009A46089F4B46D0
:103DF000C0B2B8470A9B9C466544012B00D886E2B6
:103E0000089B4746B04626004C4699463A00230098
:103E1000013731002020C847AF42F7D1A1465346B1
:103E2000340046460993013687E6C046F13A001051
:103E30006C670020A4560110E85601103457011099
:103E4000099B04CB9B4643460992002B00D1C6E058
:103E500013789C46002B00D1BDE34346013B099AF1
:103E60000133D0180A9F130001E0834203D05A782F
:103E70000133002AF9D1099A0A979B1A0B938023E0
:103E80000A00DB001A400C92194204D00B9B4345F8
:103E900001D943460B9302231A000A400D920B42AC
:103EA00000D187E16046002800D168E10C9B002B1F
:103EB00000D10DE1A844C246099B57465B1B9846BA
:103EC000089BB2462A0026004C46994609E023008A
:103ED0003100551CC8474346585D002800D126E1F3
:103EE0002A009742F3D1A1463D00340056460D9B6F
:103EF000002B00D043E15B46013609931DE6099B88
:103F00001A0008CA9246002B48D0212211438B4642
:103F10000EA884461F216144099500220F27A4465C
:103F20000D0002E0202A0CD00B003C001C402000B9
:103F30003730092C00D807380132A85419090F2B43
:103F4000F0D86446099D32E0DC4B207808930023CA
:103F50009A46002800D0E4E5002465E643460600C2
:103F60000A9F9800C018013240008019167803009B
:103F700030003038303B0928F3D93000984616001D
:103F80000A9700E6099B023604CB9046D24340468E
:103F9000D2171040804609933078F4E510220800CB
:103FA000904311321043834600224905B0D55B4649
:103FB0000693082305934346049310230393002399
:103FC000029316AB019200932A004B4621000898F9
:103FD000FFF7AEF85346050001360993ADE51378B7
:103FE0009C46002B00D1F7E202235B4237E72023F7
:103FF00002009A43472A04D180231B01194302235C
:104000009843452801D1202319430722099B049195
:10401000073393430A9A19000392424602920CC94D
:1040200008980092019309912A004B462100FFF75E
:104030006DF90136050080E510230C930C230A006E
:104040009A430B924B0503D501230B9A9A430B928B
:10405000692800D127E6642800D124E60B9A802342
:1040600011009B0019408B461A4200D066E1802364
:1040700011005B0019408A461A4200D039E2130051
:104080005B0600D53CE113001B0600D4A6E2099BA9
:1040900004CB1204120C934609935B46002B00D00C
:1040A0009AE10B9A1033110099430B91520500D4F9
:1040B00092E100239A460B9B06930A9B0593434685
:1040C00004930C9B039300230CE12023194360E627
:1040D000099B0A9A5B1B98464B4691461F00B246C5
:1040E0002600089C2A003B003100A04743460135CA
:1040F000585D0028F6D14A463400B94656460A9221
:10410000F5E6C0239B00B078194302365DE5C02375
:10411000B0781943023658E50C230A009A43143349
:104120001A43103B0B920C934B058DD496E7A14696
:1041300034005646DBE60A9A012A00D853E26B1E89
:104140009F18089BB04626004C4699462A0023003B
:10415000013531002020C847BD42F7D1A1463400C7
:104160004646099B3A0001CB210098467D1C4B46F0
:10417000089FC0B2B847434601360993DDE40B9B64
:104180000A9AA8469A4200D8B5E694466544ED1AC4
:10419000089B4746B04626004C4699463A00230005
:1041A000013731002020C847AF42F7D1A146340083
:1041B0004646A0E60B9A0A99531C914200D814E295
:1041C0004B199B1A1F00089BB24626004C46994685
:1041D0002A002300013531002020C847BD42F7D115
:1041E0000A9BA14601330B93099B34001B7856466A
:1041F0009C466046002800D058E67CE60722099BD2
:1042000007339343013294469C4462465F680992A7
:104210001A68FB17109311931098119903005340DB
:104220000E930B007B400F9394460E9A0F9B121A2D
:104230008B410E920F93FB0F6246129300233A4379
:104240009B463DD00B9A6123920600D54123002264
:10425000DBB20EA90A3B8C4692460D9343461F32B1
:1042600062441395159655460E9E0F9FA2469046A2
:104270000C9C14930CE03032D2B2434601355A55AF
:10428000BB4500D18AE1202D00D18AE106000F0054
:104290002200002330003900FDF7ACFED2B2092A1B
:1042A000E9D90D9B9C466244D2B2E6E7FF23099907
:1042B00004C913401A00099117E5C0469130001057
:1042C0000B9A1033110099430B915205BAD5002374
:1042D0009A460B9B06930A9B0593434604930C9BBB
:1042E0000393129B02935346019316AB2A0000934B
:1042F00021004B460898FEF71BFF013605001CE421
:10430000FF22099B02CB11408B460993C5E6534619
:10431000454609930136FFF710FC56465C46AA460F
:10432000139DD6E708230C930B910B99642800D0BA
:1043300084E60B9B5B0500D586E6B4E40722099B67
:1043400007339343013294469C44624609921A68AB
:104350005B6810009B4613005A46134307D10B9A23
:104360001033110099430B91520500D5A1E60B9A29
:104370006123920600D541230022DBB20EA90A3B3D
:104380008C4692460D9343461F3262445F46129517
:10439000A34655460400B24690460C9E13930DE08A
:1043A0003032D2B2434601355A550023BB4200D1C8
:1043B00000E1202D00D100E104000F0032000023B5
:1043C00020003900FDF716FED2B2092AE8D90D9B6C
:1043D0009C466244D2B2E5E70B9A6123920600D56F
:1043E0004123DBB20EA90A3B1F228C460D9323000A
:1043F00062445C461295170055469B46B2460C9E99
:1044000008E03033DBB201357B55B4420ED3202DAA
:104410000CD0040031002000FDF7AEFDCBB209291D
:10442000EFD90D9A94466344DBB2ECE756465C46FE
:10443000AA46129D3FE6099B1A0008CAD917139293
:104440005A184A409246DA0F1292002B08D1802364
:1044500010220B99DB000B4091430B91002B2BD1C9
:104460000B9A6123920600D541230EAA1F2794467A
:10447000DBB20A3B0D9567445D460993A34654465B
:10448000B2460C9E08E03033DBB201357B55B442B6
:104490000ED3202D0CD0040031002000FDF76CFD60
:1044A000CBB20929EFD9099A94466344DBB2ECE711
:1044B00056465C46AB460D9D0B9B2A0006930A9B15
:1044C00021000593434604930C9B08980393129B89
:1044D000013602935B46019316AB00934B46FEF701
:1044E00027FE139B05000993FFF727FB02230C937C
:1044F0001AE7099B04CB92461293002A08D1802325
:1045000010220B99DB000B4091430B91002B2BD118
:104510000B9A6123920600D541230EAA1F279446C9
:10452000DBB20A3B0D9567445D460993A3465446AA
:10453000B2460C9E08E03033DBB201357B55B44205
:104540000ED3202D0CD0040031002000FDF714FD07
:10455000CBB20929EFD9099A94466344DBB2ECE760
:1045600056465C46AB460D9D0B9B2A0006930A9B64
:1045700021000593434604930C9B08980393002362
:1045800002935B46019316AB00934B46FEF7D0FDBA
:10459000129B050009930136FFF7CFFAB44200D809
:1045A00071E6149B54460E960F97AA469846159EA0
:1045B000139D8EE6A64200D8FBE6139B564698460E
:1045C000AA465C46129D76E508C9D8171A184240DB
:1045D0000991FFF78AFB00230B9350E4099B04CB5E
:1045E0009346099359E52F00BBE50B9301E6063B83
:1045F0000C939AE60CB410B584B006AC08CC0A0053
:104600000094010004480394FFF772FA04B010BC50
:1046100008BC02B01847C0468930001000B583B00E
:10462000009313000A0001000248FFF761FA03B08B
:1046300000BDC0468930001010B5094A0300146857
:1046400084B0002C08D0012200910648524203A9F0
:10465000A047012004B010BD00F0E2F90020F9E706
:104660006C670020FD32001000BEFDE7094A030020
:104670001068002805D00849C3188B4207D813607A
:10468000704706480449C31810608B42F7D90120CF
:104690004042F5E75867002000000420F46900203C
:1046A000030010B508001100002B05D1044B1A6857
:1046B0005B6800F027F910BD01204042FBE7C046CF
:1046C000B05501100300013B10B508001400012B88
:1046D00006D801230022210000F094F8200010BD2C
:1046E00001204042FBE7C046012040427047C046DF
:1046F000012040427047C046012040427047C046FA
:104700000300022200209A424041704710B5FFF793
:10471000ABFFC04670B5FDF7D7FA074D074EB5425F
:1047200009D20024013E761BB60808CD9847230025
:104730000134B342F9D170BD445501104C550110FC
:10474000030010B5080011001B68984710BDC04653
:10475000F0B546464F46D646C0B5437D80460E006E
:104760001700002B46D0002A3FDD4B1E9946244BF4
:104770000125002400209A460DE04B461B5D0D3BB1
:104780005A425341325DDBB20A2A0BD02B0001346E
:1047900001359F421ADD002CEFD14346325D1B7D6F
:1047A0000A2AF3D1002BF1D1A04204DA4346211AA0
:1047B0001B6830189847434650461B6802219847AB
:1047C000013428002B0001359F42E4DC874204DDE0
:1047D0004346391A1B6830189847F619013E33785A
:1047E0000D3B5A42534142461375E0BCBA46B146AE
:1047F000A846F0BD0368110030009847F5E7C046B1
:10480000D8580110F0B5DE4657464E464546E0B54D
:1048100085B017001C0006000D00FCF769FF00239F
:10482000314A12184B41002B59DB304908008A46A7
:1048300010F062FE01906B1C03D130000FF094FB6E
:104840000500002C26D12A4B98462A4B1C68002CC8
:1048500015D0002F21D1284F02E02469002C0ED062
:104860002368002BF9D03B68002B01D0A342F4D180
:1048700020002A003100C0472469002CF0D1019BA0
:10488000002B28D1280005B0F0BCBB46B246A94693
:10489000A046F0BD194B9846D7E7174B994602AB97
:1048A000DF1D0A239B4602E02469002CE7D0236821
:1048B000002BF9D04B461B68002B01D0A342F3D14B
:1048C0002A0031002000C0475B4601223900200049
:1048D0003B70C047E8E7504610F0F6FDD2E70122F2
:1048E000074B5242A1E7C04640420F00B4180020D7
:1048F00041470010E4660020E866002051470010A0
:10490000FFFFFF7FF8B557464E464546DE469846C0
:104910001A4BE0B59A461A4B07000E00934699468B
:10492000184D53461C68002C03D115E02469002C57
:1049300012D02B68002B01D0A342F7D1A368002B23
:10494000F4D03100380098470028EFDDF0BCBB46BA
:10495000B246A946A046F8BD4B465B6A984508D8C2
:104960004A46926A5A4501D2984502D002204042F6
:10497000ECE701200021FCF7C5FED2E7E466002049
:1049800000400540E8660020F0B5CE46474680B5B9
:1049900083B06B460600DD1D2870FCF7A9FE0023DE
:1049A0001A4A12184B41002B2BDB19490800884684
:1049B00010F0A2FD174B81461C68002C14D0164F36
:1049C00002E02469002C0FD02368002BF9D03B684B
:1049D000002B01D0A342F4D1200001222900FFF7CF
:1049E000B7FE2469002CEFD14B46002B05D13000D7
:1049F00003B0C0BCB946B046F0BD404610F064FDFF
:104A0000F5E70122054B5242CFE7C04640420F0076
:104A1000B4180020E4660020E8660020FFFFFF7F56
:104A200070B504000FF0A0FA012301000500012277
:104A30002000FFF7E7FE084B1C68002C06D06368D7
:104A4000002B05D098472469002CF8D1280070BDB0
:104A50002469002CF3D1F9E7E4660020F0B54E4656
:104A60004546DE465746E0B583B0019200221E005F
:104A70000CAB1B78050099460368DA660132596071
:104A8000DA66002E42DD721E9446494601224A40F3
:104A90005202904680220020802452009246C03A62
:104AA000596F1029FCD0002827D000278021BB4651
:104AB0004900844510D019611959596B0A4211D027
:104AC00001205B6D40424B462B7103B0F0BCBB46EE
:104AD000B246A946A046F0BD474659463943574617
:104AE0003943E8E7996F0029E6D01B6901990B5417
:104AF00001308642E7D02B68D2E729790029D4D04B
:104B00008027A021FF00BB46C900D2E70020DAE7DA
:104B1000F0B557464E464546DE4690460022E0B583
:104B200083B01E000CAB1B7884469A460368DA6695
:104B300001325960DA66002E4FDD51464A4052027A
:104B400001928022914632008025771E0020464641
:104B500010219046AD000024002804D1624614794B
:104B6000621E9441A4020022934687421AD0325C0E
:104B700022435C4622431A615A6B1142FCD04A46DA
:104B80009C58002C11D1874222D001308045E2D1BF
:104B9000634652461A7103B0F0BCBB46B246A94602
:104BA000A046F0BD019A9346E1E75A6D0122934673
:104BB0005A6B2A42FCD01A6E5A46002AE5D0002CC5
:104BC00003D0E30701D42307E2D401204042DFE70A
:104BD0005246002AD9D1D346EAE70020D8E7C0469A
:104BE000F8B5DE4657464E4645468346E0B50520B5
:104BF0000C00FCF7BDFF0600600821008019FDF7DE
:104C0000BBF9430098468044070005214046FDF764
:104C1000B3F93B1A9A461E4B8146700080199C429C
:104C200031D81C49FDF7A8F9451C5B461C680023D8
:104C30000422E366236801205A40062313408022A1
:104C40005201A21813605346E3614B462362434668
:104C50004F2B03D950214046FDF78EF9A023E05099
:104C6000E06F0D4B45402D042D0CE3181D60012312
:104C700039003000E366FDF77FF9F0BCBB46B24671
:104C8000A946A046F8BD0549FDF776F9451CCCE7D5
:104C90003F420F00809698007C10000040787D0114
:104CA000104A70B5821A53425A41072352429A431E
:104CB0000D4B10321A600D4B0D4C1A601500236815
:104CC0009D432B1EFAD166240268FF340571D56618
:104CD0001460633C8833FF3CD5639563D450FFF781
:104CE0007FFF70BD0002002000E0004000F00040A7
:104CF00008C0004010B582B004AC24780094FFF7DF
:104D000007FF02B010BDC04610B582B004AC2478D5
:104D10000094FFF7A3FE02B010BDC046014B186817
:104D20007047C046DC580110F0B5454657464E4620
:104D3000DE46E0B589B0129D0400894690461F000A
:104D4000002D68D050239A46AA44504600F0F2FF46
:104D5000002860D0002C5ED0236864269B46002B80
:104D600007D0300009B0F0BCBB46B246A946A04609
:104D7000F0BD484606F064FE00284ED04346002BA6
:104D800049D0002F47D05B46079307AB05935B469E
:104D9000049303932B006A46583343CB43C25346D4
:104DA000390048462A6D5B6806F0EEFE00284DD1BA
:104DB000C82101202A6EEB6D9847206000284CD056
:104DC000484606F073FE2B0064332668079A00936A
:104DD00041462B0001F0DAF8C4222368B0509858FD
:104DE00000282BD07033190001F0D2F9061E16D11D
:104DF00048232468EA5C7033E254290070222000C2
:104E0000FEF7F4F84B461A68C023E250296E079863
:104E10006B6D9847A5E70B26A3E7C826A1E7236893
:104E2000002B11D0C4269A59002A07D0484606F014
:104E30003DFE2368995901F0BBF923681800296EDB
:104E40006A6D9047002323600126DFE703000222FA
:104E5000673B934303D00A28F6D10A26D6E7672694
:104E6000D4E7C04670B51A4D8AB05022194902AC39
:104E700006002800FEF7BAF8200000F051FF2B00D2
:104E8000503307CC07C306CC06C36C46200000F0A5
:104E9000F1FF2B00643306CC06C36A4627240023A7
:104EA00012191000137006F00BFE00280CD16B468F
:104EB0001B191A786C232900EA5430007022FEF77F
:104EC00095F830000AB070BD00F060FF0022F1E7F5
:104ED000205F0020E0580110F8B504000D00160016
:104EE000002819D00368002B16D0C427DA59002AED
:104EF00012D0C022985806F0B3F900280CD02368CD
:104F0000D859002808D0002D09D03200290000F01F
:104F1000D5FF431E984101E096204000F8BD0B20CC
:104F2000FCE7C04670B5041E12D00368002B0FD0FA
:104F3000C4255A59002A0BD0C022985806F090F97F
:104F4000002805D023685859431E9841C0B200E09C
:104F5000002070BD002808D00368002B05D0C422B3
:104F60009858431E9841C0B270470020FCE7C046E5
:104F700030B5030085B00800002B3DD01A780A2A0E
:104F80003CD81F4992008A5897465A6B016A920092
:104F900052580020511E8A4139215A5405B030BD63
:104FA0005A6B0168F3E75A6B8169F0E75A6B8168C5
:104FB000EDE75A6B0169EAE75C68250023002200EF
:104FC00021004335029542340135413340321031DE
:104FD0000195009408F040FCE0E75C6825002300A0
:104FE0002200210023352234213320321031019553
:104FF000009408F08DFED1E70B20CFE70120CDE72C
:1050000030590110F0B5C64600B5040098B000282C
:1050100000D19CE003780A2B00D95AE1AE4A9B00EC
:10502000D3589F46436B0A6A9B009B58002B08D0BD
:10503000210082681031406806F04EFF051E00D046
:105040009DE0002584E0436B0A689B009B58002B81
:10505000F7D08168002340680AAA07F037F9051ED7
:10506000EFD09223FF33984216D10022593BFF3BE9
:10507000E2546DE0436B8A699B009B58002BE0D0A3
:10508000010082681031406806F060F8051ED8D033
:10509000F623FF3398425BD000F078FE58E02023DF
:1050A0004068C35C002B00D071E02223C35C002B5E
:1050B00000D09DE02123C35C002BC2D010300AAA8F
:1050C00004A908F03BFD051EE6D160680AA908F0B6
:1050D000FBFE051E00D1E5E008200121285608F05E
:1050E0008BFE0600032800D0CEE02800182258309E
:1050F00004A9FDF77BFF2E72002529E042234068BA
:10510000C35C002B5CD1C369002B03D04023C35C7C
:10511000002B22D14423C35C002B00D082E0432328
:10512000C35C002B8DD0C26A0AA9103008F048FA7F
:10513000051EB1D10E9A0F9B606808F011FF002880
:1051400000D17EE7232301220025C25400E00B2575
:10515000280018B080BCB846F0BD816A103008F055
:10516000C3FA051E00D097E76068816A08F0ACFEBC
:10517000002802D022230122C2546068CAE7574B9C
:10518000984200D088E739230022E254E0E708F093
:105190006FFE061E606800D187E731007060F2691B
:1051A0001030283108F0F4FB051E00D08AE03000F2
:1051B0001022F1690930FDF719FF3572606874E754
:1051C000103004AA0AA908F077F9051E00D063E799
:1051D0000E9A0F9B606808F0B1FE002806D02023CD
:1051E0000122C2546B461A7C2123C25460688AE7AC
:1051F000103004AA0AA908F053FC051E00D04BE7A2
:10520000606804A908F060FE051E06D01822403030
:105210000AA9FDF7EBFE02232B722223002260680D
:10522000C25447E702000AA93032103008F012FADF
:10523000051E00D030E70E9A0F9B606808F0A2FEB2
:10524000061E3DD0012383846068836B002B00D150
:1052500065E725230025984601276B00416B5B1904
:10526000DB00C91808F030FE002807D0434660680C
:10527000F754836B0135AB42EFD850E760680135D6
:10528000836BAB42E9D84AE76468102206A96846F6
:10529000FDF7ACFE03212000049A059B08F0E6FE12
:1052A000002555E76468102206A96846FDF79EFEB2
:1052B00002212000049A059B08F0D8FE002547E74C
:1052C00060682CE73100606808F0E4FD00F05EFDE6
:1052D0003EE701253CE7C0465C5901105902000039
:1052E000F0B5C646030000B500282BD0002929D010
:1052F00002004420844601380024804624273832A6
:1053000009E0092D18D0507800281CD10134403311
:105310004032A14217D01078002814D01D78082DF3
:10532000EFD15E68356C2D020DD16046305C0028EF
:1053300009D14046305CE7E75D682E6A002E02D155
:10534000E85DE1E7002080BCB846F0BDF0B5C64698
:1053500000B5040084B0002800D19CE04378002B05
:105360000FD10378082B68D0092B1AD03922825C20
:10537000002A08D00A2B00D95DE1B0499A008A586A
:105380009746012B05D00024200004B080BCB8460D
:10539000F0BD03780A2B00D94DE1A9499A008A583B
:1053A000974624234068026AC35C002A00D0CEE0FE
:1053B000002BE8D003E0486808F06CFD606808F056
:1053C000ADFD011EF7D124236068C154C2E0A0687E
:1053D000A16A266B062B00D1DAE0072B00D125E16C
:1053E0002500B0471035A26A6068290006F0BEFDAE
:1053F0000400002CC8D000F0C9FCC5E72100A0685B
:10540000236B10319847BEE7A068236B9847BAE733
:10541000606807F083F88B4B04009842E9D1B2E74B
:105420003923E35CE16A226B002B00D1ADE0A06878
:105430009047A8E7236B9847A5E74068036C1B02D9
:1054400007D14433C35C002B03D14333C35C002B2F
:1054500099D04223C35C002B20D0202300279846FC
:10546000212608F0A1FD051E17D04346EF546368BE
:1054700028009B69E26AA95D9847AB5D002B00D1CB
:1054800090E0280008F0D8FC002800D08AE0012332
:105490002B726068E5E70B2476E760684023C35C05
:1054A000002B13D0C568002D2BD022260027AB5D22
:1054B000002B08D0C369AF55002B04D0816AE26A83
:1054C0002800984760682D68002DF0D14423C35C04
:1054D000002B16D0C568002D13D0252324260027C5
:1054E0009846AB5D002B09D0436AAF55002B05D021
:1054F00041462800E26A695C984760682D68002D83
:10550000EFD14323C35C002B00D13CE723270026C7
:105510000BE063682800D96AE26A1B6AEE55984777
:105520006068290008F0B6FC606808F04DFD051EB3
:10553000EFD128E73922825C036B002A2FD10020AB
:10554000984720E7406884E724234068C35C002B29
:1055500000D034E72023C35C002B34D03A4E002126
:1055600008F0CCFC051E2BD063682800E16A9B691B
:105570009847B0421CD00021280008F035FD606833
:10558000290008F087FC6068E9E700209047FAE608
:10559000250010350A002900B04724E7236BA068D6
:1055A0009847F0E66068290008F074FC606858E7E6
:1055B0000121280008F018FD01232B726068CEE756
:1055C00020236068C5542123C35C002B00D1DAE698
:1055D000C568002D26D02526022702E02D68002D63
:1055E00020D00823EB56032BF8D1C369E16A2800C9
:1055F0009847A855002804D0280008F015FD6068D9
:10560000ECE7636829009846102260316846FDF790
:10561000EDFC01214046AA6DEB6D08F027FD2F72CD
:105620006068DBE721230022C254ACE62500E26A71
:10563000B0471035D7E60124A6E6C04688590110C8
:10564000B45901102103000034080000F0B5040033
:105650000F0016001D00B3B000284BD0002949D020
:10566000180000F067FB002844D0002E42D09022A2
:1056700023490EA8FDF7BAFC90220EA92000FDF7E1
:10568000B5FC68466760E66007F08CF820003422BD
:1056900069461830FDF7AAFC00231A4A29692267D7
:1056A000636765612B68B0019847A060002824D02B
:1056B000002500E0A068AB013100C018013500F002
:1056C00019FAAE42F6D120004C3000F007FA8022E1
:1056D0000D4BA35000230432A350A268002A07D028
:1056E0006269002A04D0E268002A01D08822A3540B
:1056F000002000E00B2033B0F0BD0A20FBE7C046DD
:10570000105A011000CA9A3BE1520010F0B5C6468B
:1057100000B5040006A800788046002C28D0002997
:1057200026D0002A24D0002B22D02669E56801204B
:10573000AE4202D380BCB846F0BDB501AC46A56808
:10574000002765442B63434628872F706960AA6051
:105750006B70EF622500013618352800266107F0CE
:105760002BF8002806D1E36C00200133E364E1E765
:105770000B20DFE7280007F029F80028F3D0D9E74D
:10578000F0B5CE46474680B5040099B000283BD01E
:1057900006001836300007F00FF80025002805D065
:1057A000280019B0C0BCB946B046F0BD300007F0C3
:1057B0000DF8002825D104AF3D000AA806F0F2FF3D
:1057C00034220AA93000FDF711FC236D60699C4664
:1057D000636EE16C98468CC88CC588C888C56068C3
:1057E00063460390A06E42460290A06D0190606DEA
:1057F0000090300007F018FB051ED1D000F0C6FA6B
:10580000CEE700F0C3FAD6E70B25C9E7F0B54E4660
:105810004546DE465746E0B504009046994683B0BB
:10582000002800D18EE0406805F01AFD002839D02C
:10583000260020001836FFF7A3FF300007F0A8F875
:10584000071E00D07BE0E3680025002B1ED0382324
:105850009A46A04B9B46A368AA019B1852469A5CA5
:10586000002A13D01A780A2A1CD8594692008A585E
:1058700097461A0030005968343207F0FDFB01905A
:10588000002823D1E3680135AB42E4D84B464246B9
:10589000300007F021FC8823E35C002B00D1B6E048
:1058A000012B51D000F072FA0127380003B0F0BC90
:1058B000BB46B246A946A046F0BD1A003000596862
:1058C000343207F0A9FB01900028DBD000F05EFA2B
:1058D000019FEAE71A0030005968343207F028F8CF
:1058E00001900028CED0F1E71A0030005968343218
:1058F00007F05CFB01900028C4D0E7E71A003000F5
:105900005968343207F022FB01900028BAD0DDE755
:105910001A00596830003432103108F09BF90190B8
:105920000028AFD0D2E71A00596830000023343283
:10593000103107F01FFF01900028A3D0C6E700F048
:1059400025FAB2E70B27B0E70022A368E1689C467E
:105950000025904600291CD0383291469222FF3211
:1059600092460EE03100FFF703FB051E01D05045C3
:105970004BD101239C46E168E044A368884500D3ED
:105980009EE09C46434698014B466044C35C002B16
:10599000E8D18423E258043B6046E3589847002846
:1059A00033D00022E3689046002B2ED0382399464E
:1059B0009223FF339A460CE03100FFF723FB051ECC
:1059C00001D0504521D101239C46E368E04498452D
:1059D0007AD243464A469801A3681818825C002A86
:1059E000EAD138220026904609E0FFF7AFFC051EF9
:1059F0000BD1E36801369E4200D356E7A368B0019D
:105A000018184346C35C002BEFD12F004DE700224E
:105A1000A368E1689C460025904600291BD03832D7
:105A200091469222FF3292460DE03100FFF7A0FA34
:105A3000051E01D05045E8D101239C46E168E044B1
:105A4000A36888453ED29C46434698014B46604435
:105A5000C35C002BE9D18423E258043B6046E35841
:105A600098470028D1D00022E3689046002BCCD084
:105A700038239A469223FF339B4616E03100FFF706
:105A8000C1FA002804D0584502D0134B98421FD1C8
:105A9000A0684844FFF75AFC051EB6D101239C4676
:105AA000E368E044984500D3FFE643469B019946EE
:105AB0005346A0684844C35C002BDFD12F00F4E6B6
:105AC0009C4666E79C46C6E7002B9ED0A36888E705
:105AD0000700EAE6E05901105902000010B500285D
